:100000000C942A000C9447000C9447000C94470071
:100010000C9447000C9447000C9447000C94470044
:100020000C9447000C9447000C9447000C94410238
:100030000C9447000C942A010C9447000C94470040
:100040000C9447000C9447000C9447000C94470014
:100050000C94470011241FBECFE5D8E0DEBFCDBF12
:1000600012E0A0E6B0E0E0E9F2E102C005900D92F6
:10007000A43FB107D9F723E0A4EFB2E001C01D927D
:10008000A430B207E1F70E94F7050C9446090C94DE
:10009000000088BBDD98DE98DF9A83EF91E001973E
:1000A000F1F700C00000DF98089588BBDD9ADE9864
:1000B000DF9A83EF91E00197F1F700C00000DF982D
:1000C000089588E30E94490089EF90E00197F1F7D5
:1000D00000C0000081E00E94490089EF90E0019794
:1000E000F1F700C0000082E00E94490089EF90E033
:1000F0000197F1F700C0000086E00E94490089EFF7
:1001000090E00197F1F700C0000080E80E944900EC
:1001100089EF90E00197F1F700C0000083EC99E0CF
:100120000197F1F700C000008EE00E94490083ECC7
:1001300099E00197F1F700C000000895CF93DF9395
:10014000EC018991882319F00E945500FACFDF91C4
:10015000CF91089581E00C944900CF93DF93EC0197
:100160000E94AA00CE010E949E002FE78AE196E03D
:10017000215080409040E1F700C00000DF91CF9116
:100180000895CF93DF93EB010E944900CE01DF91E8
:10019000CF910C949E0088EF84BB089588EF85BBB7
:1001A0008DEE92E00197F1F700C0000093B39770D5
:1001B00081E009F080E0089588EF85BB8DEE92E044
:1001C0000197F1F700C0000083B3877051F087E812
:1001D00093E10197F1F700C0000093B3977081E0BD
:1001E00009F480E00895CF93DF930E94DC00813012
:1001F00061F5ECE7F0E083E090E0C7E9D0E021E0D2
:1002000030E0A901082E01C0440F0A94EAF745BB6B
:10021000ADEEB2E01197F1F700C00000989B02C06C
:10022000C481D581999B02C0C281D3819A9B02C0AF
:10023000C081D181019636968730910511F70E94D1
:10024000CE008823E1F3CE0102C087E990E0DF9180
:10025000CF9108951F920F920FB60F9211248F9392
:100260008CB1809375008F910F900FBE0F901F90EF
:1002700018958091F7028F5F8093F7028C3339F4E1
:100280008091F6028F5F8093F6021092F7028091C0
:10029000F6028C3339F48091F5028F5F8093F5027A
:1002A0001092F6028091F502883111F41092F50255
:1002B0000895EF92FF920F931F93CF93DF930E94C5
:1002C000490064E970E08AEF92E00E944D06CAEFAF
:1002D000D2E088E9E82E80E0F82E0E94F300182F83
:1002E000092F66E970E00E944406892BB9F0812F3E
:1002F000902F0E949E000F931F93DF93CF93FF9246
:10030000EF92DF93CF930E945C068DB79EB708965D
:100310000FB6F8949EBF0FBE8DBFDFCF8AEF92E07D
:10032000DF91CF911F910F91FF90EF900895CF92A1
:10033000DF92EF92FF920F931F93CF93DF93CDB78E
:10034000DEB7E2970FB6F894DEBF0FBECDBF1E8AB0
:100350001D8A82E1FE017796DF01982F1D929A9502
:10036000E9F71A8219827497DF011D928A95E9F7DD
:100370001AA619A6B89688E0DF011D928A95E9F7BA
:100380000E94AA008091F702282F082E000C330B40
:100390003F938F938091F602282F082E000C330B89
:1003A0003F938F938091F502282F082E000C330B7A
:1003B0003F938F938DE990E09F938F937E01B5E1FA
:1003C000EB0EF11CFF92EF920E945C06809176008A
:1003D000282F082E000C330B3F938F9380917700CA
:1003E000282F082E000C330B3F938F9380917900B8
:1003F0008F93809178008F938CEA90E09F938F93F6
:10040000CE0101966C019F938F930E945C068091B0
:100410007500282F082E000C330B3F938F938BEB26
:1004200090E09F938F938E01075D1F4F1F930F9353
:100430000E945C06C7010E949E00B60180EC90E01D
:100440000E94C100B80184E990E00E94C10065ECFF
:1004500070E084ED90E00E94C1000FB6F894DEBF1A
:100460000FBECDBFE2960FB6F894DEBF0FBECDBF74
:10047000DF91CF911F910F91FF90EF90DF90CF9080
:1004800008951F920F920FB60F9211242F933F934E
:100490004F935F936F937F938F939F93AF93BF938C
:1004A000EF93FF938091F8029091F9020196909357
:1004B000F9028093F80280917A0082BF8091F8025D
:1004C0009091F902803A9F4069F41092F9021092DB
:1004D000F8020E9439018091F402823019F41CB8AC
:1004E0000E949701FF91EF91BF91AF919F918F91E2
:1004F0007F916F915F914F913F912F910F900FBE20
:100500000F901F901895CF93DF9300D000D01F92CB
:10051000CDB7DEB70E94AA001A821982FE01339677
:1005200083E0DF011D928A95E9F785ED90E00E9456
:100530009E0080EC90E00E945901BC01CE01019622
:100540000E944D06CE0101960E9426068CB981EECE
:1005500090E00E94AD000F900F900F900F900F90C1
:10056000DF91CF910895FF920F931F93CF93DF9365
:10057000CDB7DEB72A970FB6F894DEBF0FBECDBF5A
:100580000E94AA0083EF90E00E949E001A821982C6
:1005900088E0F82E8E010D5F1F4FF8018F2D11920C
:1005A0008A95E9F780EC90E00E945901BC01CE01E8
:1005B00001960E944D06CE0101960E942606909358
:1005C0007900809378001A821982F8018F2D119298
:1005D0008A95E9F763E071E084E990E00E94C10048
:1005E00084ED90E00E945901BC01CE0101960E9469
:1005F0004D06CE0101960E942606809377000E9448
:10060000AA001A821982F8018F2D11928A95E9F7B2
:1006100084E191E00E949E0080EC90E00E945901EC
:10062000BC01CE0101960E944D06CE0101960E94AA
:100630002606809376001A821982F8018F2D119276
:100640008A95E9F763E271E084E990E00E94C100D5
:1006500084ED90E00E945901BC01CE0101960E94F8
:100660004D06CE0101960E9426068093F5020E9457
:10067000AA001A821982F8011192FA94E9F783E329
:1006800091E00E949E0080EC90E00E945901BC0124
:10069000CE0101960E944D06CE0101960E942606CB
:1006A0008093F6022A960FB6F894DEBF0FBECDBF38
:1006B000DF91CF911F910F91FF9008950E94F30059
:1006C00065E471E00E944406892BC1F781E08093C4
:1006D000F4020895CF92DF92EF92FF920F931F934F
:1006E000CF93DF93CDB7DEB72A970FB6F894DEBF6E
:1006F0000FBECDBF1F821E8283E0FE013896DF0150
:10070000982F1D929A95E9F71A8219823597DF0181
:100710001D928A95E9F70E94AA0087E491E00E9461
:100720009E0080EC90E00E945901BC01CE0106962B
:100730000E944D0666E571E084E990E00E94C100E8
:1007400084ED90E00E945901BC01CE0101960E9407
:100750004D06C0907B000C2C000CDD0801E610E07B
:10076000E12CF12CEC14FD043CF5BE016A5F7F4FD7
:10077000C8010E944406892BC9F4BE016F5F7F4FF8
:10078000C80105960E944406892B81F482E08BBB48
:10079000EF2821F481E08093600002C01092600095
:1007A00081E08093F4028BE691E00AC0BFEFEB1A80
:1007B000FB0A065F1F4FD6CF81E08BBB83E891E039
:1007C0000E94AD001BBA2A960FB6F894DEBF0FBE8A
:1007D000CDBFDF91CF911F910F91FF90EF90DF90F0
:1007E000CF90089584E991E00E94AD008FEF80934F
:1007F00060001092F4020895EF92FF920F931F93FE
:10080000CF937B01C0917B00C23079F4BC018BE6B1
:1008100090E00E944D06B70180E790E0CF911F91D4
:100820000F91FF90EF900C944D062AE0C2028001D8
:100830001124BC01C8018F599F4F0E944D06B7017A
:10084000C8018A599F4F0E944D06CF5FC0937B001D
:10085000CF911F910F91FF90EF900895EF92FF922B
:100860000F931F93CF93DF93CDB7DEB72A970FB6C1
:10087000F894DEBF0FBECDBF1F821E8283E0FE0153
:100880003896DF01282F1D922A95E9F71A821982DE
:100890003597DF011D928A95E9F70E94AA0083EA45
:1008A00091E00E949E0080EC90E00E945901BC0102
:1008B000CE0106960E944D0662EB71E084E990E05D
:1008C0000E94C10084ED90E00E945901BC01CE015C
:1008D00001960E944D060E94AA0000917B0010E044
:1008E0001017DCF42AE0120370011124BE016A5FC4
:1008F0007F4FC7018F599F4F0E944406892B59F49F
:10090000BE016F5F7F4FC7018A599F4F0E944D06FE
:1009100087EC91E028C01F5FE3CF0230D9F40E943A
:10092000AA0088ED91E00E949E0068EE71E080ECE4
:1009300090E00E94C10066EF71E084E990E00E94BF
:10094000C1000E94F3008C0163E072E00E94440643
:10095000892BC1F4BE016F5F7F4FCE0106960E94C6
:10096000FC0385E092E00E94AD002A960FB6F89451
:10097000DEBF0FBECDBFDF91CF911F910F91FF90D2
:10098000EF90089564E172E0C8010E944406892B4B
:10099000C1F686E192E0E7CFEF92FF920F931F93AB
:1009A000CF93DF9300D000D01F92CDB7DEB71A826D
:1009B0001982FE01339683E0DF011D928A95E9F7E3
:1009C0000E94AA0083EA91E00E949E0080EC90E0E1
:1009D0000E945901BC01CE0101960E944D060E9461
:1009E000AA0000917B0081E6E82E80E0F82E10E05E
:1009F000101784F5BE016F5F7F4FC7010E94440648
:100A0000BAE0EB0EF11C892B01F5015000937B003D
:100A10002AE01017E4F4812F012E000C990B289F77
:100A2000D001299FB00D1124AF59BF4F0196289FC7
:100A3000F001299FF00D1124EF59FF4F822F0190F3
:100A40000D928A95E1F71F5FE4CF1F5FD1CF88E257
:100A500092E002C089E392E00F900F900F900F9008
:100A60000F90DF91CF911F910F91FF90EF900C9419
:100A7000AD001F93CF93DF9310E00E94AA008091F6
:100A80006000813051F5111113C08AE492E00E9498
:100A90009E006CE572E080EC90E00E94C1006BE685
:100AA00072E084E990E00E94C1006FE772E012C03A
:100AB00083E992E00E949E0066EA72E080EC90E09A
:100AC0000E94C10064EB72E084E990E00E94C100E2
:100AD0006DEB72E084ED90E010C0811110C08AE4EB
:100AE00092E00E949E006CE572E080EC90E00E9433
:100AF000C10064EB72E084E990E00E94C1000E94B2
:100B0000F300EC018091600081112BC063E072E082
:100B1000CE010E944406892B61F482E08093F402A6
:100B20000E945E0381E08093F402DF91CF911F91D8
:100B3000089560ED72E0CE010E944406892B29F4ED
:100B4000DF91CF911F910C94830262ED72E0CE0190
:100B50000E944406892B99F6DF91CF911F910C9446
:100B6000F203813061F666E970E0CE010E9444062E
:100B7000892BD9F165E471E0CE010E944406892BEE
:100B800009F47ACF63E072E0CE01111118C00E941F
:100B90004406892B11F260ED72E0CE010E944406FA
:100BA000892B71F262ED72E0CE010E944406892B1E
:100BB00009F0A5CFDF91CF911F910C94B3020E9451
:100BC0004406892B29F4DF91CF911F910C942E04B8
:100BD00060ED72E0CE010E944406892B09F0B5CF8A
:100BE000DF91CF911F910C94CC0411E046CF81B3DB
:100BF000806E81BB9FEF97BB88EF84BB9ABB98E95F
:100C00009AB997E099B991E093BF99BF90917A0012
:100C100092BF84BB0E946100789484ED92E00E94B0
:100C20009E002FE78AE196E0215080409040E1F756
:100C300000C000008091F402882329F08130E1F7A0
:100C40000E943905F7CF0E946A03F4CFFC01882780
:100C50009927E89421912032E9F3293010F02E30C1
:100C6000C8F32B3241F02D3239F4689404C00E944D
:100C70005406820F911D219120532A30C0F31EF497
:100C8000909581959F4F0895FB01DC018D91019016
:100C900080190110D9F3990B0895FB01DC01019033
:100CA0000D920020E1F708957AE0979F902D879F9D
:100CB000802D910D11240895AEE0B0E0E2E6F6E05B
:100CC0000C941D090D891E8986E08C831A83098383
:100CD0008FEF9FE79E838D83AE01475E5F4F6F89E5
:100CE000788DCE0101960E947E06EF81F885E00F97
:100CF000F11F10822E96E4E00C943909ABE0B0E0CD
:100D0000E4E8F6E00C940F096C017B018A01FC0118
:100D100017821682838181FFCCC1CE0101963C01EE
:100D2000F6019381F70193FD859193FF81917F01F6
:100D3000882309F4BAC1853239F493FD859193FF74
:100D400081917F01853229F4B60190E00E947508F7
:100D5000E7CF912C212C312CFFE1F315D8F08B3209
:100D600079F038F4803279F08332A1F4232D2061B8
:100D70001DC08D3261F0803369F4232D216016C0CF
:100D8000832D8260382EE32DE4603E2E2AC0F32DA1
:100D9000F8601DC037FC2DC020ED280F2A3040F030
:100DA0008E32B9F436FC81C1232D2064322E19C055
:100DB00036FE06C08AE0989E200D1124922E11C0A6
:100DC000EAE02E9E200D1124222EF32DF0623F2EFC
:100DD00008C08C3621F4832D8068382E02C08836F6
:100DE00041F4F70193FD859193FF81917F0181117A
:100DF000B3CF982F9F7D9554933028F40C5F1F4FED
:100E00009FE399830DC0833631F0833771F08335CA
:100E100009F059C021C0F801808189830E5F1F4FFE
:100E200088248394912C530113C02801F2E04F0EC3
:100E3000511CF801A080B18036FE03C0692D70E01E
:100E400002C06FEF7FEFC5010E946A084C0182016A
:100E5000F32DFF773F2E16C0280122E0420E511CD1
:100E6000F801A080B18036FE03C0692D70E002C099
:100E70006FEF7FEFC5010E945F084C01F32DF06812
:100E80003F2E820133FC1BC0822D90E0881699060C
:100E9000B0F4B60180E290E00E9475082A94F4CF85
:100EA000F50137FC859137FE81915F01B60190E035
:100EB0000E94750821102A9421E0821A9108811459
:100EC000910471F7E8C0843611F0893641F5F801D4
:100ED00037FE07C060817181828193810C5F1F4F53
:100EE00008C060817181072E000C880B990B0E5F82
:100EF0001F4FF32DFF763F2E97FF09C090958095E9
:100F0000709561957F4F8F4F9F4FF0683F2E2AE07D
:100F100030E0A3010E94B108882E861845C08537AD
:100F200031F4232D2F7EB22E2AE030E025C0932D00
:100F3000997FB92E8F36C1F018F4883579F0B5C095
:100F4000803719F0883721F0B0C0E92FE061BE2E5C
:100F5000B4FE0DC0FB2DF460BF2E09C034FE0AC0E4
:100F6000292F2660B22E06C028E030E005C020E11F
:100F700030E002C020E132E0F801B7FE07C0608136
:100F80007181828193810C5F1F4F06C060817181E6
:100F900080E090E00E5F1F4FA3010E94B108882EF1
:100FA0008618FB2DFF773F2E36FE0DC0232D2E7F9A
:100FB000A22E891458F434FE0BC032FC09C0832DD4
:100FC0008E7EA82E05C0B82CA32C03C0B82C01C05F
:100FD000B92CA4FE0FC0FE01E80DF11D8081803305
:100FE00021F49A2D997EA92E09C0A2FE06C0B394C1
:100FF000B39404C08A2D867809F0B394A3FC11C081
:10100000A0FE06C0B21488F4280C922C9B180EC0C7
:10101000B21460F4B60180E290E00E947508B394C7
:10102000F7CFB21418F42B1802C0982C212CA4FE70
:1010300010C0B60180E390E00E947508A2FE17C0C0
:10104000A1FC03C088E790E002C088E590E0B6010B
:101050000CC08A2D867859F0A1FE02C08BE201C037
:1010600080E2A7FC8DE2B60190E00E947508891429
:1010700038F4B60180E390E00E9475089A94F7CFA7
:101080008A94F301E80DF11D8081B60190E00E9481
:1010900075088110F5CF222009F442CEB60180E216
:1010A00090E00E9475082A94F6CFF6018681978118
:1010B00002C08FEF9FEF2B96E2E10C942B09FC010D
:1010C0000590615070400110D8F7809590958E0F73
:1010D0009F1F0895FC016150704001900110D8F7E6
:1010E000809590958E0F9F1F08950F931F93CF9318
:1010F000DF93FB01238121FD03C08FEF9FEF2CC005
:1011000022FF16C04681578124813581421753073B
:1011100044F4A081B1819D012F5F3F4F3183208333
:101120008C93268137812F5F3F4F3783268314C0EE
:101130008B01EC01FB010084F185E02D0995892BE1
:10114000E1F6D80116968D919C9117970196179606
:101150009C938E931697CE01DF91CF911F910F91A3
:101160000895FA01AA27283051F1203181F1E8943D
:101170006F936E7F6E5F7F4F8F4F9F4FAF4FB1E08A
:101180003ED0B4E03CD0670F781F891F9A1FA11D85
:10119000680F791F8A1F911DA11D6A0F711D811D86
:1011A000911DA11D20D009F468943F912AE0269F4B
:1011B00011243019305D3193DEF6CF010895462FAA
:1011C0004770405D4193B3E00FD0C9F7F6CF462F8B
:1011D0004F70405D4A3318F0495D31FD40524193F4
:1011E00002D0A9F7EACFB4E0A695979587957795B1
:1011F0006795BA95C9F700976105710508959B0138
:10120000AC010A2E06945795479537952795BA95C0
:10121000C9F7620F731F841F951FA01D08952F9299
:101220003F924F925F926F927F928F929F92AF9276
:10123000BF92CF92DF92EF92FF920F931F93CF93C3
:10124000DF93CDB7DEB7CA1BDB0B0FB6F894DEBF5A
:101250000FBECDBF09942A88398848885F846E8480
:101260007D848C849B84AA84B984C884DF80EE80CA
:10127000FD800C811B81AA81B981CE0FD11D0FB6D3
:10128000F894DEBF0FBECDBFED010895F894FFCFF7
:10129000FF310000000032000000000000000000EC
:1012A0000000000000190205E50706010302D00254
:1012B000D202E702E902EB02ED02EF02F102450180
:1012C0001402960000002300257325730054696DF5
:1012D000653A2025643A25643A25640044617465C2
:1012E0003A2025642F25642F25640074656D703ABB
:1012F00020256443007072657373202A20746F2068
:101300006578697400456E74657220737465703A0F
:10131000006D6F746F7220726F7461746564202E3B
:101320002E2E00456E7465722074686520796561A3
:10133000723A00456E74657220746865206D6F6E38
:1013400074683A00456E7465722074686520646143
:10135000793A00456E7465722074686520686F750F
:10136000723A00456E74657220746865206D696E0E
:101370007574653A002A00456E74657220796F7540
:10138000722069643A00456E74657220796F7572D7
:101390002070617373776F72643A0073756363656D
:1013A000737366756C6C79206C6F67696E65642EFB
:1013B0002E2E004163636573732064656E696564F6
:1013C0002E2E2E004C6F67676564206F7574202E7B
:1013D0002E2E00456E7465722075736572206964E7
:1013E0003A00456E74657220757365722070617382
:1013F00073776F72643A00757365722075706461FB
:10140000746564202E2E2E005468652072616D2054
:1014100069732046756C6C006F76657277726974BB
:10142000652069743F0028313D7965732F303D6E2A
:101430006F290031007573657220616464656420F2
:101440002E2E2E0030007573657220646F6E74202E
:10145000616464202E2E2E00757365722064656CA5
:1014600065746564202E2E2E0074686520696420E2
:101470006E6F742076616C696400312E736565202F
:10148000696E666F726D6174696F6E00322E726F75
:1014900074617465206D6F746F7200332E646174B3
:1014A000652674696D652073657474696E6700756F
:1014B0007365202320666F72206E657874207061DA
:1014C000676500312E416464206F72204564697441
:1014D000207573657200322E72656D6F76652075AA
:1014E00073657200332E6C6F676F7574007573656A
:1014F000202A20666F722070726520706167650017
:101500003200330048692E757365202320746F20E4
:101510007375626D69740034003500360037003829
:04152000003900008E
:00000001FF
