:100000000C9432000C944F000C944F000C944F0051
:100010000C944F000C944F000C944F000C944F0024
:100020000C944F000C944F000C944F000C94B100B2
:100030000C944F000C944F000C944F000C944F0004
:100040000C944F000C944F000C944F000C944F00F4
:100050000C944F009E00A000A200A400A600A800DF
:10006000AA00AC0011241FBECFE5D8E0DEBFCDBF93
:1000700010E0A0E6B0E0E2E6F2E002C005900D92EA
:10008000A436B107D9F720E0A4E6B0E001C01D9284
:10009000AA36B207E1F70E94F6000C942F010C94E7
:1000A00000008091610090916200803D27E09207FE
:1000B00018F422E330E002C020E931E04091600012
:1000C000442351F08C3241E0940718F0821B930BCB
:1000D00009C01092600013C0813A4FE0940738F4D1
:1000E000820F931F909362008093610008C081E0AB
:1000F0008093600090916300892780936300209132
:1001000063008091640090916500222311F00196B4
:1001100004C0019711F487E090E09093650080930C
:100120006400089568E070E00E9401018830910544
:10013000B0F4FC01E65DFF4F0C94150182E00DC0A8
:1001400086E00BC084E009C085E007C08DE005C0F3
:1001500089E003C08BE001C08AE08BBB08951BBA25
:1001600008951F920F920FB60F9211242F933F9371
:100170004F935F936F937F938F939F93AF93BF93AF
:10018000EF93FF9383B3843001F1209168003091A5
:10019000690080916100909162002817390761F42D
:1001A0000E94510080916400909165000E9492002D
:1001B0001092690010926800809168009091690027
:1001C00001969093690080936800FF91EF91BF9131
:1001D000AF919F918F917F916F915F914F913F91DF
:1001E0002F910F900FBE0F901F90189514BA8FE0AB
:1001F0008ABB1BBA81E083BF89B7816089BF7894CD
:10020000FFCF97FB072E16F4009407D077FD09D097
:100210000E941B0107FC05D03EF4909581959F4FED
:100220000895709561957F4F0895EE0FFF1F05901B
:10023000F491E02D0994AA1BBB1B51E107C0AA1F32
:10024000BB1FA617B70710F0A61BB70B881F991F77
:100250005A95A9F780959095BC01CD010895F89421
:02026000FFCFCE
:0402620001A00F01E7
:00000001FF
