:100000000C9432000C9444000C9444000C94440072
:100010000C9444000C9444000C9444000C94440050
:100020000C9444000C9444000C9444000C9465001F
:100030000C9444000C9444000C9444000C94440030
:100040000C9444000C9444000C9444000C94440020
:100050000C94440052005400560058005A005C00B2
:100060005E00600011241FBECFE5D8E0DEBFCDBF2B
:1000700020E0A0E6B0E001C01D92A836B207E1F78B
:100080000E94B6000C940D010C94000068E070E032
:100090000E94F30088309105B0F4FC01E65DFF4F4B
:1000A0000C94070182E00DC086E00BC084E009C01B
:1000B00085E007C08DE005C089E003C08BE001C08A
:1000C0008AE08BBB08951BBA08951F920F920FB65A
:1000D0000F9211242F933F934F935F936F937F93CE
:1000E0008F939F93AF93BF93EF93FF9380916000A3
:1000F000882359F1809166009091670064EF71E068
:100100000E94DF00892BC1F420916300809164007C
:1001100090916500222311F0019604C0019711F41B
:1001200087E090E090936500809364008091640084
:10013000909165000E944600809166009091670052
:1001400001969093670080936600FF91EF91BF91B5
:10015000AF919F918F917F916F915F914F913F915F
:100160002F910F900FBE0F901F90189514BA8FE02B
:100170008ABB1BBA81E083BF89B7816089BF78944D
:1001800091E021E030E083B3843021F410926200EA
:100190001092610083B38430B1F3409161005091BB
:1001A0006200452B81F7809163008927809363006B
:1001B000309362002093610090936000E4CFAA1B0B
:1001C000BB1B51E107C0AA1FBB1FA617B70710F042
:1001D000A61BB70B881F991F5A95A9F78095909574
:1001E000BC01CD01089597FB072E16F4009407D0AB
:1001F00077FD09D00E94DF0007FC05D03EF4909502
:1002000081959F4F0895709561957F4F0895EE0FEA
:0E021000FF1F0590F491E02D0994F894FFCFA4
:00000001FF
