:100000000C942A000C943C000C943C000C943C0092
:100010000C943C000C943C000C943C000C943C0070
:100020000C943C000C943C000C943C000C943E005E
:100030000C943C000C94B5000C943C000C943C00D7
:100040000C943C000C943C000C943C000C943C0040
:100050000C943C0011241FBECFE5D8E0DEBFCDBF1D
:1000600020E0A0E6B0E001C01D92A636B207E1F79D
:100070000E94EA000C9400010C9400001F920F9261
:100080000FB60F9211242F938F939F93809162004C
:10009000909163000196909363008093620086E0E4
:1000A00082BF8091620090916300803A9F4031F45A
:1000B000109263001092620082E085BB9F918F9145
:1000C0002F910F900FBE0F901F90189597B1987FAA
:1000D0008770892B87B9369A3699FECF84B195B14E
:1000E000089580916400909165008230910589F0B7
:1000F00020F4019799F484E00FC08330910559F002
:10010000049761F482E088BB10926500109264004D
:1001100008958DE001C08BE088BB089518BA08955A
:100120000F931F93CF93DF938C01C0E0D0E0C017F3
:10013000D107B4F48091640090916500019690938A
:100140006500809364000E9471002FE986E891E0C9
:10015000215080409040E1F700C000002196E7CF99
:10016000DF91CF911F910F9108951F920F920FB6BB
:100170000F9211242F933F934F935F936F937F932D
:100180008F939F93AF93BF93EF93FF938CB190E0C6
:1001900021E025BB009759F4109263001092620091
:1001A00080E00E946600969587958CB902C00E94F7
:1001B0009000FF91EF91BF91AF919F918F917F91AF
:1001C0006F915F914F913F912F910F900FBE0F90C4
:1001D0001F9018958FE087BB80EF8ABB83E084BBBC
:1001E00088E98AB987E089B980E487B986E886B961
:1001F00081E083BF89BF86E082BF18BA7894FFCFC1
:04020000F894FFCFA0
:00000001FF
