:100000000C942A000C943C000C943C000C943C0092
:100010000C943C000C943C000C943C000C943C0070
:100020000C943C000C943C000C943C000C945D003F
:100030000C943C000C943C000C943C000C943C0050
:100040000C943C000C943C000C943C000C943C0040
:100050000C943C0011241FBECFE5D8E0DEBFCDBF1D
:1000600020E0A0E6B0E001C01D92A436B207E1F79F
:100070000E94A3000C94AE000C94000080916000DC
:10008000909161008230910589F020F4019799F4F4
:1000900084E00FC08330910559F0049761F482E049
:1000A0008BBB109261001092600008958DE001C03A
:1000B0008BE08BBB08951BBA08951F920F920FB669
:1000C0000F9211242F933F934F935F936F937F93DE
:1000D0008F939F93AF93BF93EF93FF9380916200B1
:1000E000909163000196909363008093620085E095
:1000F00082BF8091620090916300843F914091F4AF
:1001000083B3843059F00E943E008091600090914A
:1001100061000196909361008093600010926300EB
:1001200010926200FF91EF91BF91AF919F918F91DB
:100130007F916F915F914F913F912F910F900FBEE3
:100140000F901F90189514BA8FE08ABB1BBA81E0FC
:1001500083BF89B7816089BF7894FFCFF894FFCFC0
:00000001FF
